:100000000C942A000C9447000C9447000C94470071
:100010000C9447000C9447000C9447000C94C71BA9
:100020000C9447000C94FA1B0C9447000C94470066
:100030000C9447000C9447000C9447000C94470024
:100040000C9447000C9447000C9447000C94470014
:100050000C94470011241FBECFE5D8E0DEBFCDBF12
:1000600012E0A0E6B0E0ECE9FCE302C005900D92DE
:10007000A231B107D9F712E0A2E1B2E001C01D92AE
:10008000AC31B107E1F70E94FC060C944C1E0C94B5
:100090000000EF92FF920F931F937B018C0120E0F1
:1000A00030E040E05FE40E94F50388238CF0C80153
:1000B000B70120E030E040E05FE40E94C1010E940F
:1000C000B3049B01AC01205030404040504806C072
:1000D000C801B7010E94B3049B01AC01B901CA0178
:1000E0001F910F91FF90EF900895A0E0B0E0EBE733
:1000F000F0E00C94D01DDC012B01FA019C919230B0
:1001000008F439C1EB018881823008F433C194309E
:1001100069F4843009F02FC111969C91119789815F
:10012000981709F428C1A6EFB0E025C1843009F47E
:1001300021C18230A9F4923009F01DC19A01AD01AC
:1001400088E0EA010990AE01E90109929E0181501F
:10015000C1F7E201898111969C918923818308C1AD
:10016000923009F407C112962D903C901397EB0141
:100170008A819B811496AD90BD90CD90DC901797AD
:10018000EC80FD800E811F819101281B390BB90184
:1001900037FF04C066277727621B730B6032710537
:1001A0000CF061C0121613066CF537014801062EDB
:1001B00004C096948794779467940A94D2F721E0C8
:1001C00030E040E050E004C0220F331F441F551FB1
:1001D0006A95D2F721503040404050402E213F21B7
:1001E00040235123211531054105510521F021E01E
:1001F00030E040E050E079018A01E628F72808293C
:1002000019293CC0232BD1F1260E371E350146019A
:10021000062E04C096948794779467940A94D2F734
:1002200021E030E040E050E004C0220F331F441FC3
:10023000551F6A95D2F721503040404050402A2146
:100240003B214C215D21211531054105510521F04E
:1002500021E030E040E050E059016A01A628B728CB
:10026000C828D9280BC0821593052CF01C01AA249C
:10027000BB24650103C0EE24FF24870111969C91E5
:10028000D20111968C91981709F445C0992339F041
:10029000A80197012A193B094C095D0906C0A6016E
:1002A00095012E193F09400B510B57FD08C01182D3
:1002B0003382228224833583468357831DC081E0A5
:1002C00081833382228288279927DC01821B930B4A
:1002D000A40BB50B84839583A683B7830DC0220F2F
:1002E000331F441F551F24833583468357838281E0
:1002F000938101979383828324813581468157813D
:10030000DA01C9010197A109B1098F5F9F4FAF4F72
:10031000BF4328F30BC0918333822282EA0CFB1C7B
:100320000C1D1D1DE482F5820683178383E0808304
:10033000248135814681578157FF1AC0C901AA27F8
:1003400097FDA095BA2F81709070A070B0705695EF
:10035000479537952795822B932BA42BB52B848318
:100360009583A683B7838281938101969383828349
:10037000DF0101C0D201CD01CDB7DEB7E2E10C94BF
:10038000EC1DA0E2B0E0E7ECF1E00C94DC1D698329
:100390007A838B839C832D833E834F835887E9E048
:1003A000EE2EF12CEC0EFD1ECE010196B7010E943F
:1003B0002B068E010F5E1F4FCE010596B8010E94DD
:1003C0002B068A8991E089278A8BC701B801AE0183
:1003D000475E5F4F0E9475000E945605A096E6E0BA
:1003E0000C94F81DA0E2B0E0E8EFF1E00C94DC1D05
:1003F00069837A838B839C832D833E834F835887C5
:10040000F9E0EF2EF12CEC0EFD1ECE010196B701A6
:100410000E942B068E010F5E1F4FCE010596B8017C
:100420000E942B06C701B801AE01475E5F4F0E94D4
:1004300075000E945605A096E6E00C94F81DA0E217
:10044000B0E0E5E2F2E00C94D01D69837A838B83FF
:100450009C832D833E834F835887CE010196BE0136
:10046000675F7F4F0E942B06CE010596BE016F5E2F
:100470007F4F0E942B069985923088F089898230BF
:10048000C8F0943019F4823051F404C0843029F457
:10049000923081F486EF90E0C6C0923049F420E0BB
:1004A0009A858A89981321E02A87CE010996BBC0D4
:1004B000823049F420E09A858A89981321E02A8BBA
:1004C000CE014196B0C02D843E844F8458886D88FB
:1004D0007E888F88988CEE24FF248701AA24BB2471
:1004E000650140E050E060E070E0E0E0F0E0C10174
:1004F00081709070892BE9F0E60CF71C081D191D1E
:100500009A01AB012A0D3B1D4C1D5D1D80E090E062
:10051000A0E0B0E0E614F7040805190520F481E036
:1005200090E0A0E0B0E0BA01A901480F591F6A1F8E
:100530007B1FAA0CBB1CCC1CDD1C97FE08C081E0F5
:1005400090E0A0E0B0E0A82AB92ACA2ADB2A3196B6
:10055000E032F10549F0660C771C881C991C569412
:10056000479437942794C3CFFA85EA892B893C892D
:100570008B859C85280F391F2E5F3F4F17C0CA01FE
:1005800081709070892B61F016950795F794E79428
:1005900080E090E0A0E0B0E8E82AF92A0A2B1B2BC3
:1005A00076956795579547952F5F3F4F77FDE7CF36
:1005B0000CC0440F551F661F771F17FD4160EE0CDE
:1005C000FF1C001F111F21503040403090E05907A0
:1005D00090E0690790E4790760F32B8F3C8FDB0193
:1005E000CA018F779070A070B07080349105A1051A
:1005F000B10561F447FD0AC0E114F10401051105DC
:1006000029F0405C5F4F6F4F7F4F40781A8EFE1786
:1006100011F081E08A8F4D8F5E8F6F8F78A383E01A
:10062000898FCE0149960E945605A096E2E10C946E
:10063000EC1DA8E1B0E0EFE1F3E00C94D81D698374
:100640007A838B839C832D833E834F835887B9E0C5
:10065000EB2EF12CEC0EFD1ECE010196B7010E948F
:100660002B068E010F5E1F4FCE010596B8010E942A
:100670002B062985223008F47EC03989323010F4E7
:10068000B8017CC08A859A8989278A87243011F02D
:10069000223031F4231709F06EC066EF70E06EC0AF
:1006A000343039F41D861E861F86188A1C861B86E8
:1006B00004C0323021F484E08987B7015FC02B8504
:1006C0003C858B899C89281B390B3C872B87ED84C3
:1006D000FE840F851889AD88BE88CF88D88CEA142F
:1006E000FB040C051D0540F4EE0CFF1C001F111F40
:1006F000215030403C872B8720E030E040E050E044
:1007000080E090E0A0E0B0E460E070E0EA14FB0478
:100710000C051D0540F0282B392B4A2B5B2BEA18C2
:10072000FB080C091D09B695A79597958795EE0CC2
:10073000FF1C001F111F6F5F7F4F6F31710531F775
:10074000DA01C9018F779070A070B0708034910584
:10075000A105B10561F427FD0AC0E114F10401050A
:10076000110529F0205C3F4F4F4F5F4F20782D87B8
:100770003E874F87588BBE01675F7F4FCB010E943A
:1007800056056896EAE00C94F41DA8E1B0E0EBECA5
:10079000F3E00C94DC1D69837A838B839C832D8327
:1007A0003E834F83588789E0E82EF12CEC0EFD1E26
:1007B000CE010196B7010E942B068E010F5E1F4FDE
:1007C000CE010596B8010E942B068985823040F043
:1007D0008989823028F0C701B8010E94A30601C0B0
:1007E0008FEF6896E6E00C94F81DA8E1B0E0EBEF1F
:1007F000F3E00C94DC1D69837A838B839C832D83C7
:100800003E834F83588789E0E82EF12CEC0EFD1EC5
:10081000CE010196B7010E942B068E010F5E1F4F7D
:10082000CE010596B8010E942B068985823040F0E2
:100830008989823028F0C701B8010E94A30601C04F
:100840008FEF6896E6E00C94F81DA8E1B0E0EBE2CB
:10085000F4E00C94DC1D69837A838B839C832D8365
:100860003E834F83588789E0E82EF12CEC0EFD1E65
:10087000CE010196B7010E942B068E010F5E1F4F1D
:10088000CE010596B8010E942B068985823040F082
:100890008989823028F0C701B8010E94A30601C0EF
:1008A00081E06896E6E00C94F81DA8E0B0E0EBE586
:1008B000F4E00C94D91D9B01AC0183E08983DA013B
:1008C000C9018827B7FD83959927AA27BB27B82E8A
:1008D000211531054105510519F482E089833AC09B
:1008E0008823A9F0203080E0380780E0480780E8BE
:1008F000580729F460E070E080E09FEC30C0EE24FF
:10090000FF248701E21AF30A040B150B02C07901D8
:100910008A018EE1C82ED12CDC82CB82ED82FE8250
:100920000F831887C801B7010E94070501971816A1
:10093000190684F4082E04C0EE0CFF1C001F111FC2
:100940000A94D2F7ED82FE820F831887C81AD90A5B
:10095000DC82CB82BA82CE0101960E94560528968F
:10096000E9E00C94F51DACE0B0E0E9EBF4E00C94A8
:10097000E01D69837A838B839C83CE010196BE013F
:100980006B5F7F4F0E942B068D81823061F1823038
:1009900050F1843021F48E81882351F12EC02F81B3
:1009A000388537FD20C06E812F3131051CF066235C
:1009B000F9F023C08EE190E0821B930B29853A85E4
:1009C0004B855C8504C056954795379527958A9544
:1009D000D2F76623B1F050954095309521953F4F61
:1009E0004F4F5F4F0EC020E030E040E050E009C0C4
:1009F0002FEF3FEF4FEF5FE704C020E030E040E033
:100A000050E8B901CA012C96E2E00C94FC1DEF926B
:100A1000FF920F931F937B018C0180E0E81680E02A
:100A2000F80681E0080780E0180788F48FEFE816E1
:100A3000F1040105110531F028F088E090E0A0E014
:100A4000B0E017C080E090E0A0E0B0E012C080E02D
:100A5000E81680E0F80680E0080781E0180728F033
:100A600088E190E0A0E0B0E004C080E190E0A0E088
:100A7000B0E020E230E040E050E0281B390B4A0BA8
:100A80005B0B04C016950795F794E7948A95D2F707
:100A9000F701E250FF4F8081281B310941095109BC
:100AA000C9011F910F91FF90EF900895DF92EF928F
:100AB000FF920F931F93FC01E480F580068117815C
:100AC000D1808081823048F480E090E0A0E1B0E005
:100AD000E82AF92A0A2B1B2BA5C0843009F49FC0F1
:100AE000823021F4EE24FF24870105C0E114F104D3
:100AF0000105110519F4E0E0F0E096C06281738110
:100B00009FEF623879070CF05BC022E83FEF261BAD
:100B1000370B2A3131052CF020E030E040E050E086
:100B20002AC0B801A701022E04C076956795579593
:100B300047950A94D2F781E090E0A0E0B0E004C0CD
:100B4000880F991FAA1FBB1F2A95D2F70197A109E9
:100B5000B1098E219F21A023B1230097A105B105E2
:100B600021F081E090E0A0E0B0E09A01AB01282BF9
:100B7000392B4A2B5B2BDA01C9018F779070A0705B
:100B8000B07080349105A105B10539F427FF09C083
:100B9000205C3F4F4F4F5F4F04C0215C3F4F4F4F92
:100BA0005F4FE0E0F0E02030A0E03A07A0E04A0725
:100BB000A0E45A0710F0E1E0F0E079018A0127C0D3
:100BC0006038710564F5FB01E158FF4FD801C7019A
:100BD0008F779070A070B07080349105A105B10539
:100BE00039F4E7FE0DC080E490E0A0E0B0E004C07E
:100BF0008FE390E0A0E0B0E0E80EF91E0A1F1B1F93
:100C000017FF05C016950795F794E794319687E08E
:100C100016950795F794E7948A95D1F705C0EE24C9
:100C2000FF248701EFEFF0E06E2F67956627679549
:100C3000902F9F77D794DD24D7948E2F8695492FB8
:100C4000462B582F5D29B701CA011F910F91FF90C4
:100C5000EF90DF900895FC01DB01408151812281FA
:100C6000622F6F7770E0221F2227221F9381892F26
:100C7000880F822B282F30E0991F9927991F1196F2
:100C80009C93119721153105A9F541155105610571
:100C9000710511F482E037C082E89FEF13969C93B0
:100CA0008E9312979A01AB0167E0220F331F441F06
:100CB000551F6A95D1F783E08C930DC0220F331F27
:100CC000441F551F12968D919C911397019713966F
:100CD0009C938E931297203080E0380780E048077D
:100CE00080E4580758F314962D933D934D935C93ED
:100CF000179708952F3F310579F441155105610586
:100D0000710519F484E08C93089564FF03C081E0B9
:100D10008C9312C01C9210C02F57304013963C93F6
:100D20002E93129783E08C9387E0440F551F661F24
:100D3000771F8A95D1F7706414964D935D936D93E8
:100D40007C93179708951F93DC01FB019C919230CF
:100D500008F447C08081823008F443C0943051F4D5
:100D600011961C91843099F58181682F70E0611B88
:100D700071093FC0843021F0923031F48230B9F1F2
:100D80008181882389F12DC011961C9111978230A1
:100D9000F1F081811817D9F412962D913C91139797
:100DA000828193818217930794F028173907BCF04A
:100DB00014968D919D910D90BC91A02D248135812B
:100DC00046815781281739074A075B0718F4112312
:100DD00041F00AC082179307A407B50740F4112316
:100DE00019F061E070E005C06FEF7FEF02C060E0D6
:100DF00070E0CB011F910895DF93CF93CDB7DEB79D
:100E00002F970FB6F894DEBF0FBECDBF9E012E5FA9
:100E10003F4F3C872B878EEF91E09E878D8797E031
:100E20009F87ED85FE8500802D853E852F5F3F4F96
:100E30003E872D87EB85FC8500822B853C852F5FC7
:100E40003F4F3C872B873F8531503F878F858823D5
:100E500041F7CE0102960E94B31C0E946E1180E3FE
:100E600089838981E82FF0E0FA87E98729853A8527
:100E70002333310599F189859A858433910584F46A
:100E8000E985FA85E133F105F9F029853A852233C0
:100E90003105F4F489859A858033910589F0E1CF95
:100EA000E985FA85E533F10509F129853A85253388
:100EB0003105C4F089859A8587349105D9F0D1CF61
:100EC0000E9438088983CDCF0E94E1088983C9CF69
:100ED000109216020E948F098983C3CF0E943A0A9A
:100EE0008983BFCF0E943A0A8983BBCF0E94E40A5C
:100EF0008983B7CF0E94AB0B8983B3CFDF93CF93A6
:100F0000CDB7DEB7809117028D3179F481E090E0A2
:100F1000A0E0B0E08093120290931302A093140219
:100F2000B09315021092170205C0809117028F5FCF
:100F300080931702CF91DF910895DF93CF93CDB7C0
:100F4000DEB780911802863079F481E090E0A0E06D
:100F5000B0E08093120290931302A0931402B09316
:100F600015021092180205C0809118028F5F8093BD
:100F70001802CF91DF910895DF93CF93CDB7DEB7FD
:100F800081E06EE00E943F1B80911902882F90E063
:100F9000AA2797FDA095BA2FBC01CD010E94550448
:100FA000DC01CB01BC01CD0123E333E343EF5FEB75
:100FB0000E941903DC01CB01BC01CD0120E030E02F
:100FC00040E752E40E94F201DC01CB01BC01CD01FB
:100FD0000E944900DC01CB018A3018F480E30E94B2
:100FE0009B1680911902882F90E0AA2797FDA09563
:100FF000BA2FBC01CD010E945504DC01CB01BC011C
:10100000CD0123E333E343EF5FEB0E941903DC01DF
:10101000CB01BC01CD0120E030E040E752E40E946A
:10102000F201DC01CB01BC01CD010E944900DC01D1
:10103000CB01882F90E00E949A1B80911902833780
:1010400079F481E090E0A0E0B0E080931202909308
:101050001302A0931402B09315021092190205C056
:10106000809119028F5F80931902CF91DF910895CB
:10107000DF93CF93CDB7DEB760970FB6F894DEBF9E
:101080000FBECDBF1F860E94BD1B80E690E00E9470
:10109000161B81E060E00E943F1B0E94E00F888BDE
:1010A0008AE20E949B168F85843091F40E94E00FA3
:1010B0008D339105D9F788890E941C1D81E36096C4
:1010C0000FB6F894DEBF0FBECDBFCF91DF9108956C
:1010D00088890E941C1D80E090E0AAEFB3E48B8712
:1010E0009C87AD87BE876B857C858D859E8520E03E
:1010F00030E04AEF54E40E941F02DC01CB018F83F1
:101100009887A987BA876F81788589859A8520E035
:1011100030E040E85FE30E94250488232CF481E05E
:1011200090E09E838D833FC06F81788589859A8505
:1011300020E03FEF4FE757E40E94C50318164CF537
:101140006B857C858D859E8520E030E040E251E412
:101150000E941F02DC01CB01BC01CD010E944900AD
:10116000DC01CB019E838D830FC088EC90E09C83D3
:101170008B838B819C810197F1F79C838B838D817D
:101180009E8101979E838D838D819E81009769F753
:1011900014C06F81788589859A850E944900DC0199
:1011A000CB019E838D838D819E819A8389838981E2
:1011B0009A810197F1F79A8389838F858F5F8F8753
:1011C0006CCFDF93CF93CDB7DEB760970FB6F894AF
:1011D000DEBF0FBECDBF1F860E94BD1B80E790E023
:1011E0000E94161B81E060E00E943F1B81E890E0B6
:1011F0000E94161B0E94E00F888B8AE20E949B16B9
:101200008F85843099F40E94E00F8D339105D9F7D2
:1012100088890E941C1D0E94331D60960FB6F894A9
:10122000DEBF0FBECDBFCF91DF91089588890E94A8
:101230001C1D80E090E0AAEFB3E48B879C87AD870C
:10124000BE876B857C858D859E8520E030E04AEFEA
:1012500054E40E941F02DC01CB018F839887A98789
:10126000BA876F81788589859A8520E030E040E8EB
:101270005FE30E94250488232CF481E090E09E83A4
:101280008D833FC06F81788589859A8520E03FEF07
:101290004FE757E40E94C50318164CF56B857C8513
:1012A0008D859E8520E030E040E251E40E941F02DF
:1012B000DC01CB01BC01CD010E944900DC01CB0166
:1012C0009E838D830FC088EC90E09C838B838B8101
:1012D0009C810197F1F79C838B838D819E8101977F
:1012E0009E838D838D819E81009769F714C06F81E5
:1012F000788589859A850E944900DC01CB019E830F
:101300008D838D819E819A83898389819A810197BA
:10131000F1F79A8389838F858F5F8F876BCFDF93F8
:10132000CF93CDB7DEB760970FB6F894DEBF0FBE90
:10133000CDBF0E94BD1B8DE890E00E94161B81E08E
:1013400060E00E943F1B8BE990E00E94161B0E9408
:10135000E00F8F8780E090E0AAEFB3E48B879C8753
:10136000AD87BE876B857C858D859E8520E030E0CE
:101370004AEF54E40E941F02DC01CB018F8398875F
:10138000A987BA876F81788589859A8520E030E0C2
:1013900040E85FE30E94250488232CF481E090E07C
:1013A0009E838D833FC06F81788589859A8520E0F3
:1013B0003FEF4FE757E40E94C50318164CF56B85C5
:1013C0007C858D859E8520E030E040E251E40E94DE
:1013D0001F02DC01CB01BC01CD010E944900DC01F0
:1013E000CB019E838D830FC088EC90E09C838B8320
:1013F0008B819C810197F1F79C838B838D819E81EA
:1014000001979E838D838D819E81009769F714C01B
:101410006F81788589859A850E944900DC01CB011E
:101420009E838D838D819E819A83898389819A8110
:101430000197F1F79A8389838F858B3231F487E6A0
:101440000E941C1D83E3888B0BC08F858D3231F485
:1014500080E70E941C1D84E3888B02C082E3888B96
:10146000888960960FB6F894DEBF0FBECDBFCF91CE
:10147000DF910895DF93CF93CDB7DEB760970FB6B6
:10148000F894DEBF0FBECDBF1F860E94BD1B80E655
:1014900090E00E94161B81E060E00E943F1B0E94CA
:1014A000E00F888B8AE20E949B168F85843099F426
:1014B0000E94E00F8D339105D9F788890E941C1D89
:1014C0000E94331D60960FB6F894DEBF0FBECDBFED
:1014D000CF91DF91089588890E941C1D80E090E0E3
:1014E000AAEFB3E48B879C87AD87BE876B857C852D
:1014F0008D859E8520E030E04AEF54E40E941F0273
:10150000DC01CB018F839887A987BA876F817885A3
:1015100089859A8520E030E040E85FE30E94250459
:1015200088232CF481E090E09E838D833FC06F81FF
:10153000788589859A8520E03FEF4FE757E40E9440
:10154000C50318164CF56B857C858D859E8520E03E
:1015500030E040E251E40E941F02DC01CB01BC01FB
:10156000CD010E944900DC01CB019E838D830FC019
:1015700088EC90E09C838B838B819C810197F1F7B1
:101580009C838B838D819E8101979E838D838D812A
:101590009E81009769F714C06F81788589859A8547
:1015A0000E944900DC01CB019E838D838D819E8149
:1015B0009A83898389819A810197F1F79A83898334
:1015C0008F858F5F8F876BCFDF93CF93CDB7DEB7DC
:1015D00061970FB6F894DEBF0FBECDBF80911602A3
:1015E000823071F485E60E941C1D0E943F0C0E940F
:1015F000331D8F36E1F71092160282E3898BA1C06A
:10160000809116028F5F809316021F8682E70E94E8
:101610001C1D0E94BD1B80E690E00E94161B81E00D
:1016200060E00E943F1B0E94E00F888B8AE20E94CC
:101630009B168F85843061F40E94E00F8D339105F5
:10164000D9F788890E941C1D0E94331D898B79C09F
:1016500088890E941C1D80E090E0AAEFB3E48B878C
:101660009C87AD87BE876B857C858D859E8520E0B8
:1016700030E04AEF54E40E941F02DC01CB018F836B
:101680009887A987BA876F81788589859A8520E0B0
:1016900030E040E85FE30E94250488232CF481E0D9
:1016A00090E09E838D833FC06F81788589859A8580
:1016B00020E03FEF4FE757E40E94C50318164CF5B2
:1016C0006B857C858D859E8520E030E040E251E48D
:1016D0000E941F02DC01CB01BC01CD010E94490028
:1016E000DC01CB019E838D830FC088EC90E09C834E
:1016F0008B838B819C810197F1F79C838B838D81F8
:101700009E8101979E838D838D819E81009769F7CD
:1017100014C06F81788589859A850E944900DC0113
:10172000CB019E838D838D819E819A83898389815C
:101730009A810197F1F79A8389838F858F5F8F87CD
:1017400072CF898961960FB6F894DEBF0FBECDBF08
:10175000CF91DF910895DF93CF93CDB7DEB72B976D
:101760000FB6F894DEBF0FBECDBF0E94BD1B8BEA43
:1017700090E00E94161B8EE797E00E94A11CCE010C
:10178000019698878F83E5E0F2E0FA87E987F6E033
:10179000FB87E985FA85008089859A8501969A8775
:1017A0008987EF81F88500828F81988501969887D7
:1017B0008F839B8591509B87EB85EE2351F7CE015C
:1017C00001960E942D1C8091120290911302A0910B
:1017D0001402B09115020097A105B105A1F3109272
:1017E00012021092130210921402109215028DE947
:1017F00097E00E94A11C0E94BD1B8BEB90E00E9411
:10180000161B8091120290911302A0911402B091C4
:1018100015020097A105B105A1F3109212021092D2
:10182000130210921402109215028EE797E00E94A4
:10183000A11C0E94BD1B88EC90E00E94161B8091A9
:10184000120290911302A0911402B0911502009718
:10185000A105B105A1F31092120210921302109289
:101860001402109215020E947A1C82E32B960FB686
:10187000F894DEBF0FBECDBFCF91DF910895DF9307
:10188000CF93CDB7DEB72B970FB6F894DEBF0FBE60
:10189000CDBF0E94BD1B88ED90E00E94161B81E029
:1018A00060E00E943F1B87EE90E00E94161B8CEBCD
:1018B00097E00E94A11CCE01019698878F83EBE0F0
:1018C000F2E0FA87E987F6E0FB87E985FA85008090
:1018D00089859A8501969A878987EF81F8850082A4
:1018E0008F819885019698878F839B8591509B87E0
:1018F000EB85EE2351F7CE0101960E942D1C8091BD
:10190000120290911302A0911402B0911502009757
:10191000A105B105A1F30E947A1C10921202109247
:10192000130210921402109215022B960FB6F8941F
:10193000DEBF0FBECDBFCF91DF910895DF93CF9370
:1019400000D000D00F92CDB7DEB789836A834B8376
:101950008A81883008F0D5C08981843008F0D1C0F0
:101960008981282F30E03D832C838C819D818130BB
:10197000910509F443C02C813D81223031052CF4BE
:101980008C819D81009771F0BCC02C813D812230FB
:10199000310509F45FC08C819D818330910509F484
:1019A00085C0AFC08B818130A1F4AAE3B0E0EAE347
:1019B000F0E08081482F8A81282F30E081E090E09C
:1019C000022E02C0880F991F0A94E2F7842B8C9391
:1019D00098C0AAE3B0E0EAE3F0E08081482F8A8172
:1019E000282F30E081E090E0022E02C0880F991F7E
:1019F0000A94E2F7809584238C9383C08B81813095
:101A0000A1F4A7E3B0E0E7E3F0E08081482F8A810A
:101A1000282F30E081E090E0022E02C0880F991F4D
:101A20000A94E2F7842B8C936CC0A7E3B0E0E7E361
:101A3000F0E08081482F8A81282F30E081E090E01B
:101A4000022E02C0880F991F0A94E2F78095842322
:101A50008C9357C08B818130A1F4A4E3B0E0E4E320
:101A6000F0E08081482F8A81282F30E081E090E0EB
:101A7000022E02C0880F991F0A94E2F7842B8C93E0
:101A800040C0A4E3B0E0E4E3F0E08081482F8A8125
:101A9000282F30E081E090E0022E02C0880F991FCD
:101AA0000A94E2F7809584238C932BC08B8181303C
:101AB000A1F4A1E3B0E0E1E3F0E08081482F8A8166
:101AC000282F30E081E090E0022E02C0880F991F9D
:101AD0000A94E2F7842B8C9314C0A1E3B0E0E1E315
:101AE000F0E08081482F8A81282F30E081E090E06B
:101AF000022E02C0880F991F0A94E2F78095842372
:101B00008C930F900F900F900F900F90CF91DF91CB
:101B10000895DF93CF9300D000D00F92CDB7DEB7FA
:101B200089836A834B838A81883008F0D5C0898194
:101B3000843008F0D1C08981282F30E03D832C8388
:101B40008C819D818130910509F443C02C813D81B8
:101B5000223031052CF48C819D81009771F0BCC03E
:101B60002C813D812230310509F45FC08C819D813B
:101B70008330910509F485C0AFC08B818130A1F419
:101B8000ABE3B0E0EBE3F0E08081482F8A81282FBF
:101B900030E081E090E0022E02C0880F991F0A9485
:101BA000E2F7842B8C9398C0ABE3B0E0EBE3F0E07A
:101BB0008081482F8A81282F30E081E090E0022E3A
:101BC00002C0880F991F0A94E2F7809584238C93B2
:101BD00083C08B818130A1F4A8E3B0E0E8E3F0E0BA
:101BE0008081482F8A81282F30E081E090E0022E0A
:101BF00002C0880F991F0A94E2F7842B8C936CC063
:101C0000A8E3B0E0E8E3F0E08081482F8A81282F44
:101C100030E081E090E0022E02C0880F991F0A9404
:101C2000E2F7809584238C9357C08B818130A1F497
:101C3000A5E3B0E0E5E3F0E08081482F8A81282F1A
:101C400030E081E090E0022E02C0880F991F0A94D4
:101C5000E2F7842B8C9340C0A5E3B0E0E5E3F0E02D
:101C60008081482F8A81282F30E081E090E0022E89
:101C700002C0880F991F0A94E2F7809584238C9301
:101C80002BC08B818130A1F4A2E3B0E0E2E3F0E06D
:101C90008081482F8A81282F30E081E090E0022E59
:101CA00002C0880F991F0A94E2F7842B8C9314C00A
:101CB000A2E3B0E0E2E3F0E08081482F8A81282FA0
:101CC00030E081E090E0022E02C0880F991F0A9454
:101CD000E2F7809584238C930F900F900F900F90D4
:101CE0000F90CF91DF910895DF93CF9300D000D074
:101CF0000F92CDB7DEB789836A838A81883018F462
:101D00008981843010F01D8282C08981282F30E0C3
:101D10003C832B834B815C814130510579F18B8170
:101D20009C818230910534F42B813C812115310551
:101D300069F06CC04B815C8142305105B9F18B81F7
:101D40009C818330910509F449C060C0E9E3F0E06B
:101D50008081282F30E08A81882F90E0A90102C07D
:101D6000559547958A95E2F7CA018170907088234E
:101D700019F051E05D834BC01D8249C0E6E3F0E0FD
:101D80008081282F30E08A81882F90E0A90102C04D
:101D9000559547958A95E2F7CA018170907088231E
:101DA00019F051E05D8333C01D8231C0E3E3F0E000
:101DB0008081282F30E08A81882F90E0A90102C01D
:101DC000559547958A95E2F7CA01817090708823EE
:101DD00019F051E05D831BC01D8219C0E0E3F0E003
:101DE0008081282F30E08A81882F90E0A90102C0ED
:101DF000559547958A95E2F7CA01817090708823BE
:101E000019F051E05D8303C01D8201C01D828D81E8
:101E10000F900F900F900F900F90CF91DF9108953A
:101E2000DF93CF9300D000D0CDB7DEB789836A832C
:101E30008981843090F58981282F30E03C832B8381
:101E40008B819C8181309105D1F02B813C812230A6
:101E500031052CF48B819C81009761F01EC02B8191
:101E60003C812230310581F08B819C81833091054A
:101E700081F013C0EAE3F0E08A8180830EC0E7E3DB
:101E8000F0E08A81808309C0E4E3F0E08A81808306
:101E900004C0E1E3F0E08A8180830F900F900F90FF
:101EA0000F90CF91DF910895DF93CF9300D000D0B2
:101EB000CDB7DEB789836A838981843090F58981C3
:101EC000282F30E03C832B838B819C8181309105CE
:101ED000D1F02B813C81223031052CF48B819C8107
:101EE000009761F01EC02B813C812230310581F0CA
:101EF0008B819C818330910581F013C0EBE3F0E08E
:101F00008A8180830EC0E8E3F0E08A81808309C083
:101F1000E5E3F0E08A81808304C0E2E3F0E08A81B7
:101F200080830F900F900F900F90CF91DF910895C5
:101F3000DF93CF9300D000D0CDB7DEB789838981FE
:101F4000843010F01C8234C08981282F30E03B831C
:101F50002A838A819B8181309105D1F02A813B813E
:101F6000223031052CF48A819B81009761F01FC0DB
:101F70002A813B812230310581F08A819B81833027
:101F8000910581F014C0E9E3F0E090819C8310C0DA
:101F9000E6E3F0E020812C830BC0E3E3F0E0308146
:101FA0003C8306C0E0E3F0E080818C8301C01C82AA
:101FB0008C810F900F900F900F90CF91DF9108952B
:101FC000DF93CF93CDB7DEB760970FB6F894DEBF3F
:101FD0000FBECDBF82E060E040E00E949E0C82E038
:101FE00061E040E00E949E0C82E062E040E00E94DE
:101FF0009E0C82E063E040E00E949E0C82E064E080
:1020000040E00E949E0C82E065E040E00E949E0C51
:1020100082E066E040E00E949E0C82E067E040E0E3
:102020000E949E0C1F86ADC082E06F8541E00E9439
:102030009E0C82E06F8540E00E94890D188A24C0C2
:102040008889982F9C5F82E0692F0E94740E8823F4
:10205000C1F48F85882F90E0880F991F880F991FF2
:10206000982F8889890F8F5F0E94C610882F90E073
:1020700060960FB6F894DEBF0FBECDBFCF91DF9153
:10208000089588898F5F888B88898430C8F282E0C0
:102090006F8540E00E949E0C80E090E0A0EAB0E4F2
:1020A0008B879C87AD87BE876B857C858D859E855C
:1020B00020E030E04AEF54E40E941F02DC01CB0133
:1020C0008F839887A987BA876F81788589859A8554
:1020D00020E030E040E85FE30E94250488232CF4F0
:1020E00081E090E09E838D833FC06F8178858985F4
:1020F0009A8520E03FEF4FE757E40E94C50318168A
:102100004CF56B857C858D859E8520E030E040E236
:1021100051E40E941F02DC01CB01BC01CD010E94F1
:102120004900DC01CB019E838D830FC088EC90E0D9
:102130009C838B838B819C810197F1F79C838B839C
:102140008D819E8101979E838D838D819E810097D5
:1021500069F714C06F81788589859A850E94490046
:10216000DC01CB019E838D838D819E819A8389833F
:1021700089819A810197F1F79A8389838F858F5F8F
:102180008F878F85843008F44FCF4CCFDF93CF9368
:1021900000D000D0CDB7DEB78A8319828A81282F7C
:1021A00030E03C832B838B819C818830910509F43E
:1021B00070C02B813C81293031055CF58B819C817D
:1021C0008430910509F459C02B813C8125303105BB
:1021D0009CF48B819C818230910509F448C02B814D
:1021E0003C81233031050CF045C08B819C818130CE
:1021F000910509F439C068C02B813C812630310536
:1022000009F441C08B819C81873091050CF03EC060
:1022100037C02B813C812C30310509F446C08B81BD
:102220009C818D3091055CF42B813C812A303105F5
:10223000B1F18B819C818B309105A4F52DC02B8150
:102240003C812E303105B9F18B819C818E30910516
:102250007CF12B813C812F30310581F18B819C8178
:102260008031910571F130C087E389832FC088E305
:1022700089832CC089E3898329C085E2898326C0AC
:1022800084E3898323C085E3898320C086E389832F
:102290001DC08AE289831AC081E3898317C082E363
:1022A000898314C083E3898311C08DE289830EC0C2
:1022B0008DE089830BC080E3898308C08DE3898327
:1022C00005C08BE2898302C08A81898389810F904E
:1022D0000F900F900F90CF91DF910895DF93CF93E0
:1022E000CDB7DEB72E970FB6F894DEBF0FBECDBFC9
:1022F00080E065E041E00E949E0C80E064E041E007
:102300000E949E0C80E090E0A0EAB1E48B879C875D
:10231000AD87BE876B857C858D859E8520E030E00E
:102320004AEF54E40E941F02DC01CB018F8398879F
:10233000A987BA876F81788589859A8520E030E002
:1023400040E85FE30E94250488232CF481E090E0BC
:102350009E838D833FC06F81788589859A8520E033
:102360003FEF4FE757E40E94C50318164CF56B8505
:102370007C858D859E8520E030E040E251E40E941E
:102380001F02DC01CB01BC01CD010E944900DC0130
:10239000CB019E838D830FC088EC90E09C838B8360
:1023A0008B819C810197F1F79C838B838D819E812A
:1023B00001979E838D838D819E81009769F714C05C
:1023C0006F81788589859A850E944900DC01CB015F
:1023D0009E838D838D819E819A83898389819A8151
:1023E0000197F1F79A83898380E060E041E00E94E1
:1023F0009E0C80E061E041E00E949E0C80E062E083
:1024000041E00E949E0C80E063E041E00E949E0C4F
:1024100083E30E94201282E30E94201288E20E943D
:1024200020128CE00E94201281E00E9420122E9641
:102430000FB6F894DEBF0FBECDBFCF91DF910895E8
:102440000F931F93DF93CF93CDB7DEB7C356D04022
:102450000FB6F894DEBF0FBECDBFFE01ED59FF4FA2
:10246000808380E065E040E00E94890DFE01E15A32
:10247000FF4F80E090E0A0E8BFE380839183A283D8
:10248000B3838E01055A1F4FFE01E15AFF4F608151
:1024900071818281938120E030E04AEF54E40E9410
:1024A0001F02DC01CB01F80180839183A283B383F7
:1024B000FE01E55AFF4F608171818281938120E0A6
:1024C00030E040E85FE30E942504882344F4FE01E5
:1024D000E75AFF4F81E090E09183808364C0FE0162
:1024E000E55AFF4F608171818281938120E03FEF47
:1024F0004FE757E40E94C50318160CF043C0FE01D5
:10250000E15AFF4F608171818281938120E030E048
:1025100040E251E40E941F02DC01CB018E01075A08
:102520001F4FBC01CD010E944900DC01CB01F80125
:10253000918380831FC0FE01E95AFF4F88EC90E031
:1025400091838083FE01E95AFF4F80819181019739
:10255000F1F7FE01E95AFF4F91838083DE01A75A0C
:10256000BF4FFE01E75AFF4F80819181019711967D
:102570009C938E93FE01E75AFF4F808191810097D3
:10258000D1F627C08E01075A1F4FFE01E55AFF4FB3
:1025900060817181828193810E944900DC01CB01BD
:1025A000F80191838083DE01AB5ABF4FFE01E75AE9
:1025B000FF4F808191818D939C93FE01EB5AFF4FD9
:1025C000808191810197F1F7FE01EB5AFF4F9183D2
:1025D000808380E064E041E00E94890DFE01EF5AB3
:1025E000FF4F80E090E0A0E8BFE380839183A28367
:1025F000B3838E01035B1F4FFE01EF5AFF4F6081D3
:1026000071818281938120E030E04AEF54E40E949E
:102610001F02DC01CB01F80180839183A283B38385
:10262000FE01E35BFF4F608171818281938120E035
:1026300030E040E85FE30E942504882344F4FE0173
:10264000E55BFF4F81E090E09183808364C0FE01F1
:10265000E35BFF4F608171818281938120E03FEFD6
:102660004FE757E40E94C50318160CF043C0FE0163
:10267000EF5AFF4F608171818281938120E030E0C9
:1026800040E251E40E941F02DC01CB018E01055B98
:102690001F4FBC01CD010E944900DC01CB01F801B4
:1026A000918380831FC0FE01E75BFF4F88EC90E0C1
:1026B00091838083FE01E75BFF4F808191810197C9
:1026C000F1F7FE01E75BFF4F91838083DE01A55B9D
:1026D000BF4FFE01E55BFF4F80819181019711960D
:1026E0009C938E93FE01E55BFF4F80819181009763
:1026F000D1F627C08E01055B1F4FFE01E35BFF4F44
:1027000060817181828193810E944900DC01CB014B
:10271000F80191838083DE01A95BBF4FFE01E55B79
:10272000FF4F808191818D939C93FE01E95BFF4F68
:10273000808191810197F1F7FE01E95BFF4F918361
:102740008083FE01ED59FF4F8081882F90E08071DA
:10275000907095958795959587959595879595957D
:102760008795982F80E060E0492F0E94890DFE0137
:10277000ED59FF4F8081882F90E080729070959581
:102780008795959587959595879595958795959531
:102790008795982F80E061E0492F0E94890DFE0106
:1027A000ED59FF4F8081882F90E080749070082E43
:1027B000892F000C881F990B000C881F991F982FD8
:1027C00080E062E0492F0E94890DFE01ED59FF4F24
:1027D0008081982F991F9927991F80E063E0492FE6
:1027E0000E94890DFE01ED5BFF4F80E090E0A0E8C4
:1027F000BFE380839183A283B3838E01015C1F4F6B
:10280000FE01ED5BFF4F608171818281938120E049
:1028100030E04AEF54E40E941F02DC01CB01F801D2
:1028200080839183A283B383FE01FF9660817181CF
:102830008281938120E030E040E85FE30E9425043C
:1028400088232CF481E090E09EAF8DAF46C0FE015E
:10285000FF96608171818281938120E03FEF4FE795
:1028600057E40E94C503181664F5FE01ED5BFF4FA7
:10287000608171818281938120E030E040E251E407
:102880000E941F02DC01CB01BC01CD010E94490066
:10289000DC01CB019EAF8DAF0FC088EC90E09CAF08
:1028A0008BAF8BAD9CAD0197F1F79CAF8BAF8DAD2E
:1028B0009EAD01979EAF8DAF8DAD9EAD009769F730
:1028C00016C0FE01FF9660817181828193810E9412
:1028D0004900DC01CB019EAF8DAF8DAD9EAD9AAFAF
:1028E00089AF89AD9AAD0197F1F79AAF89AF80E0D2
:1028F00064E040E00E94890D80E090E0A0E8BFE342
:102900008DAB9EABAFABB8AF6DA97EA98FA998ADCB
:1029100020E030E04AEF54E40E941F02DC01CB01CA
:1029200089AB9AABABABBCAB69A97AA98BA99CA9C3
:1029300020E030E040E85FE30E94250488232CF487
:1029400081E090E098AB8FA73FC069A97AA98BA9D5
:102950009CA920E03FEF4FE757E40E94C5031816FB
:102960004CF56DA97EA98FA998AD20E030E040E23A
:1029700051E40E941F02DC01CB01BC01CD010E9489
:102980004900DC01CB0198AB8FA70FC088EC90E029
:102990009EA78DA78DA59EA50197F1F79EA78DA750
:1029A0008FA598A9019798AB8FA78FA598A9009795
:1029B00069F714C069A97AA98BA99CA90E9449004A
:1029C000DC01CB0198AB8FA78FA598A99CA78BA7FB
:1029D0008BA59CA50197F1F79CA78BA780E064E0ED
:1029E00041E00E94890D80E090E0A0E8BFE38FA362
:1029F00098A7A9A7BAA76FA178A589A59AA520E04D
:102A000030E04AEF54E40E941F02DC01CB018BA3AB
:102A10009CA3ADA3BEA36BA17CA18DA19EA120E030
:102A200030E040E85FE30E94250488232CF481E035
:102A300090E09AA389A33FC06BA17CA18DA19EA128
:102A400020E03FEF4FE757E40E94C50318164CF50E
:102A50006FA178A589A59AA520E030E040E251E475
:102A60000E941F02DC01CB01BC01CD010E94490084
:102A7000DC01CB019AA389A30FC088EC90E098A356
:102A80008F8F8F8D98A10197F1F798A38F8F89A1D0
:102A90009AA101979AA389A389A19AA1009769F79E
:102AA00014C06BA17CA18DA19EA10E944900DC01F4
:102AB000CB019AA389A389A19AA19E8F8D8F8D8D19
:102AC0009E8D0197F1F79E8F8D8FFE01ED59FF4F7F
:102AD0008081982F917080E060E0492F0E94890DDD
:102AE000FE01ED59FF4F8081882F90E08270907039
:102AF00095958795982F80E061E0492F0E94890D78
:102B0000FE01ED59FF4F8081882F90E08470907016
:102B10009595879595958795982F80E062E0492F48
:102B20000E94890DFE01ED59FF4F8081882F90E0B2
:102B300088709070959587959595879595958795CB
:102B4000982F80E063E0492F0E94890D80E090E09B
:102B5000A0E8BFE3898F9A8FAB8FBC8F698D7A8D88
:102B60008B8D9C8D20E030E04AEF54E40E941F02E0
:102B7000DC01CB018D8B9E8BAF8BB88F6D897E89ED
:102B80008F89988D20E030E040E85FE30E942504C3
:102B900088232CF481E090E09C8B8B8B3FC06D8967
:102BA0007E898F89988D20E03FEF4FE757E40E94A0
:102BB000C50318164CF5698D7A8D8B8D9C8D20E0A0
:102BC00030E040E251E40E941F02DC01CB01BC0175
:102BD000CD010E944900DC01CB019C8B8B8B0FC087
:102BE00088EC90E09A8B898B89899A890197F1F713
:102BF0009A8B898B8B899C8901979C8B8B8B8B897A
:102C00009C89009769F714C06D897E898F89988D9A
:102C10000E944900DC01CB019C8B8B8B8B899C89AA
:102C2000988B8F878F8598890197F1F7988B8F877D
:102C300080E064E040E00E94890D80E090E0A0E840
:102C4000BFE38B879C87AD87BE876B857C858D8531
:102C50009E8520E030E04AEF54E40E941F02DC0130
:102C6000CB018F839887A987BA876F8178858985FB
:102C70009A8520E030E040E85FE30E942504882345
:102C80002CF481E090E09E838D833FC06F81788536
:102C900089859A8520E03FEF4FE757E40E94C503FE
:102CA00018164CF56B857C858D859E8520E030E07F
:102CB00040E251E40E941F02DC01CB01BC01CD01C6
:102CC0000E944900DC01CB019E838D830FC088ECFC
:102CD00090E09C838B838B819C810197F1F79C838F
:102CE0008B838D819E8101979E838D838D819E81B3
:102CF000009769F714C06F81788589859A850E944D
:102D00004900DC01CB019E838D838D819E819A8356
:102D1000898389819A810197F1F79A838983CD59B3
:102D2000DF4F0FB6F894DEBF0FBECDBFCF91DF915E
:102D30001F910F9108950F931F93DF93CF93CDB7FA
:102D4000DEB7C356D0400FB6F894DEBF0FBECDBF7E
:102D5000FE01ED59FF4F808380E065E041E00E9475
:102D6000890DFE01E15AFF4F80E090E0A0E8BFE34B
:102D700080839183A283B3838E01055A1F4FFE0186
:102D8000E15AFF4F608171818281938120E030E0C0
:102D90004AEF54E40E941F02DC01CB01F80180835A
:102DA0009183A283B383FE01E55AFF4F6081718155
:102DB0008281938120E030E040E85FE30E942504B7
:102DC000882344F4FE01E75AFF4F81E090E09183AD
:102DD000808364C0FE01E55AFF4F6081718182816A
:102DE000938120E03FEF4FE757E40E94C503181698
:102DF0000CF043C0FE01E15AFF4F60817181828176
:102E0000938120E030E040E251E40E941F02DC01A7
:102E1000CB018E01075A1F4FBC01CD010E94490012
:102E2000DC01CB01F801918380831FC0FE01E95AC8
:102E3000FF4F88EC90E091838083FE01E95AFF4FB9
:102E4000808191810197F1F7FE01E95AFF4F91834B
:102E50008083DE01A75ABF4FFE01E75AFF4F8081F2
:102E60009181019711969C938E93FE01E75AFF4F33
:102E7000808191810097D1F627C08E01075A1F4F9C
:102E8000FE01E55AFF4F60817181828193810E942A
:102E90004900DC01CB01F80191838083DE01AB5A4C
:102EA000BF4FFE01E75AFF4F808191818D939C9324
:102EB000FE01EB5AFF4F808191810197F1F7FE01EE
:102EC000EB5AFF4F9183808380E064E041E00E94F1
:102ED000890DFE01EF5AFF4F80E090E0A0E8BFE3CC
:102EE00080839183A283B3838E01035B1F4FFE0116
:102EF000EF5AFF4F608171818281938120E030E041
:102F00004AEF54E40E941F02DC01CB01F8018083E8
:102F10009183A283B383FE01E35BFF4F60817181E4
:102F20008281938120E030E040E85FE30E94250445
:102F3000882344F4FE01E55BFF4F81E090E091833C
:102F4000808364C0FE01E35BFF4F608171818281F9
:102F5000938120E03FEF4FE757E40E94C503181626
:102F60000CF043C0FE01EF5AFF4F608171818281F6
:102F7000938120E030E040E251E40E941F02DC0136
:102F8000CB018E01055B1F4FBC01CD010E944900A2
:102F9000DC01CB01F801918380831FC0FE01E75B58
:102FA000FF4F88EC90E091838083FE01E75BFF4F49
:102FB000808191810197F1F7FE01E75BFF4F9183DB
:102FC0008083DE01A55BBF4FFE01E55BFF4F808183
:102FD0009181019711969C938E93FE01E55BFF4FC3
:102FE000808191810097D1F627C08E01055B1F4F2C
:102FF000FE01E35BFF4F60817181828193810E94BA
:103000004900DC01CB01F80191838083DE01A95BDB
:10301000BF4FFE01E55BFF4F808191818D939C93B3
:10302000FE01E95BFF4F808191810197F1F7FE017D
:10303000E95BFF4F91838083FE01ED59FF4F808153
:10304000882F90E0807190709595879595958795DC
:103050009595879595958795982F80E060E0492F05
:103060000E94890DFE01ED59FF4F8081882F90E06D
:10307000807290709595879595958795959587958C
:103080009595879595958795982F80E061E0492FD4
:103090000E94890DFE01ED59FF4F8081882F90E03D
:1030A00080749070082E892F000C881F990B000CDB
:1030B000881F991F982F80E062E0492F0E94890D98
:1030C000FE01ED59FF4F8081982F991F9927991F75
:1030D00080E063E0492F0E94890DFE01ED5BFF4F08
:1030E00080E090E0A0E8BFE380839183A283B38374
:1030F0008E01015C1F4FFE01ED5BFF4F608171810E
:103100008281938120E030E04AEF54E40E941F0264
:10311000DC01CB01F80180839183A283B383FE019C
:10312000FF96608171818281938120E030E040E8E8
:103130005FE30E94250488232CF481E090E09EAF99
:103140008DAF46C0FE01FF966081718182819381BF
:1031500020E03FEF4FE757E40E94C503181664F5DF
:10316000FE01ED5BFF4F608171818281938120E0E0
:1031700030E040E251E40E941F02DC01CB01BC01BF
:10318000CD010E944900DC01CB019EAF8DAF0FC085
:1031900088EC90E09CAF8BAF8BAD9CAD0197F1F7C5
:1031A0009CAF8BAF8DAD9EAD01979EAF8DAF8DADBA
:1031B0009EAD009769F716C0FE01FF966081718190
:1031C000828193810E944900DC01CB019EAF8DAFCB
:1031D0008DAD9EAD9AAF89AF89AD9AAD0197F1F7EC
:1031E0009AAF89AF80E064E040E00E94890D80E002
:1031F00090E0A0E8BFE38DAB9EABAFABB8AF6DA9DD
:103200007EA98FA998AD20E030E04AEF54E40E94F7
:103210001F02DC01CB0189AB9AABABABBCAB69A99C
:103220007AA98BA99CA920E030E040E85FE30E94E6
:10323000250488232CF481E090E098AB8FA73FC051
:1032400069A97AA98BA99CA920E03FEF4FE757E431
:103250000E94C50318164CF56DA97EA98FA998ADDB
:1032600020E030E040E251E40E941F02DC01CB018B
:10327000BC01CD010E944900DC01CB0198AB8FA7B6
:103280000FC088EC90E09EA78DA78DA59EA5019705
:10329000F1F79EA78DA78FA598A9019798AB8FA747
:1032A0008FA598A9009769F714C069A97AA98BA975
:1032B0009CA90E944900DC01CB0198AB8FA78FA588
:1032C00098A99CA78BA78BA59CA50197F1F79CA714
:1032D0008BA780E064E041E00E94890D80E090E0EF
:1032E000A0E8BFE38FA398A7A9A7BAA76FA178A565
:1032F00089A59AA520E030E04AEF54E40E941F021D
:10330000DC01CB018BA39CA3ADA3BEA36BA17CA1CD
:103310008DA19EA120E030E040E85FE30E942504FB
:1033200088232CF481E090E09AA389A33FC06BA18D
:103330007CA18DA19EA120E03FEF4FE757E40E94C2
:10334000C50318164CF56FA178A589A59AA520E0AC
:1033500030E040E251E40E941F02DC01CB01BC01DD
:10336000CD010E944900DC01CB019AA389A30FC0C3
:1033700088EC90E098A38F8F8F8D98A10197F1F73B
:1033800098A38F8F89A19AA101979AA389A389A154
:103390009AA1009769F714C06BA17CA18DA19EA191
:1033A0000E944900DC01CB019AA389A389A19AA1BB
:1033B0009E8F8D8F8D8D9E8D0197F1F79E8F8D8FB6
:1033C000FE01ED59FF4F8081982F917080E060E001
:1033D000492F0E94890DFE01ED59FF4F8081882FF2
:1033E00090E08270907095958795982F80E061E0CD
:1033F000492F0E94890DFE01ED59FF4F8081882FD2
:1034000090E0847090709595879595958795982F05
:1034100080E062E0492F0E94890DFE01ED59FF4FC7
:103420008081882F90E0887090709595879595950C
:10343000879595958795982F80E063E0492F0E94A6
:10344000890D80E090E0A0E8BFE3898F9A8FAB8F71
:10345000BC8F698D7A8D8B8D9C8D20E030E04AEF9A
:1034600054E40E941F02DC01CB018D8B9E8BAF8B3D
:10347000B88F6D897E898F89988D20E030E040E893
:103480005FE30E94250488232CF481E090E09C8B6C
:103490008B8B3FC06D897E898F89988D20E03FEFAF
:1034A0004FE757E40E94C50318164CF5698D7A8DD5
:1034B0008B8D9C8D20E030E040E251E40E941F02A1
:1034C000DC01CB01BC01CD010E944900DC01CB0134
:1034D0009C8B8B8B0FC088EC90E09A8B898B8989B1
:1034E0009A890197F1F79A8B898B8B899C8901972F
:1034F0009C8B8B8B8B899C89009769F714C06D8995
:103500007E898F89988D0E944900DC01CB019C8BBC
:103510008B8B8B899C89988B8F878F859889019756
:10352000F1F7988B8F8780E064E040E00E94890D7E
:1035300080E090E0A0E8BFE38B879C87AD87BE87E3
:103540006B857C858D859E8520E030E04AEF54E4D4
:103550000E941F02DC01CB018F839887A987BA875D
:103560006F81788589859A8520E030E040E85FE3C7
:103570000E94250488232CF481E090E09E838D83B3
:103580003FC06F81788589859A8520E03FEF4FE7BE
:1035900057E40E94C50318164CF56B857C858D8514
:1035A0009E8520E030E040E251E40E941F02DC01F1
:1035B000CB01BC01CD010E944900DC01CB019E83FF
:1035C0008D830FC088EC90E09C838B838B819C81E2
:1035D0000197F1F79C838B838D819E8101979E8358
:1035E0008D838D819E81009769F714C06F817885E6
:1035F00089859A850E944900DC01CB019E838D83D9
:103600008D819E819A83898389819A810197F1F7BF
:103610009A838983CD59DF4F0FB6F894DEBF0FBE72
:10362000CDBFCF91DF911F910F910895DF93CF937D
:1036300000D00F92CDB7DEB79B838A8319820EC06C
:103640008981282F30E08A819B81FC01E20FF31FE2
:1036500080810E949B1689818F5F89838981282FB1
:1036600030E08A819B81FC01E20FF31F8081882377
:1036700039F70F900F900F90CF91DF910895DF935E
:10368000CF9300D000D00F92CDB7DEB78A836B8383
:103690008A81282F30E03D832C838C819D8181306D
:1036A0009105C1F02C813D81223031052CF48C81B3
:1036B0009D81009761F019C02C813D812230310538
:1036C00069F08C819D818330910561F00EC08B8102
:1036D00089830BC08B81805C898307C08B81805F6D
:1036E000898303C08B81805B8983898180680E9484
:1036F00020120F900F900F900F900F90CF91DF91AD
:103700000895DF93CF9300D000D0CDB7DEB7898383
:103710006A835C834B8389816A810E943F1B8B8112
:103720009C810E94161B0F900F900F900F90CF91CD
:10373000DF910895DF93CF93CDB7DEB762970FB6D1
:10374000F894DEBF0FBECDBF9A8B898B89899A8989
:103750009E012F5F3F4FB9014AE050E00E94071ED3
:10376000CE0101960E94161B62960FB6F894DEBF3A
:103770000FBECDBFCF91DF910895DF93CF93CDB72B
:10378000DEB781E00E942012CF91DF9108951F9251
:103790000F920FB60F9211242F933F934F935F9385
:1037A0006F937F938F939F93AF93BF93EF93FF9309
:1037B000DF93CF93CDB7DEB780911A0290911B02B1
:1037C000009729F0E0911A02F0911B020995CF9120
:1037D000DF91FF91EF91BF91AF919F918F917F9179
:1037E0006F915F914F913F912F910F900FBE0F906E
:1037F0001F9018951F920F920FB60F9211242F93BE
:103800003F934F935F936F937F938F939F93AF9368
:10381000BF93EF93FF93DF93CF93CDB7DEB7809144
:103820001A0290911B02009729F0E0911A02F09180
:103830001B020995CF91DF91FF91EF91BF91AF915D
:103840009F918F917F916F915F914F913F912F91B8
:103850000F900FBE0F901F901895DF93CF9300D05D
:10386000CDB7DEB79A838983AFE4B0E0E981FA810E
:103870008581837088608C93AEE4B0E0E981FA8141
:103880008581882F90E08C7090709595879595959F
:103890008795880F991F880F991F880F991F982F58
:1038A000E981FA818481892B8C93ACE4B0E0E981D1
:1038B000FA818081918111969C938E93AAE4B0E065
:1038C000E981FA818281938111969C938E93A9E577
:1038D000B0E0E9E5F0E0808180618C93AFE5B0E095
:1038E000EFE5F0E0808180688C930F900F90CF918E
:1038F000DF910895DF93CF93CDB7DEB7A9E5B0E0B0
:10390000E9E5F0E080818F7E8C93AFE5B0E0EFE5F4
:10391000F0E080818F778C93EFE4F0E01082EEE4AA
:10392000F0E01082ECE4F0E011821082EAE4F0E0D2
:103930001182108210921B0210921A02CF91DF9115
:103940000895DF93CF9300D0CDB7DEB79A838983F4
:1039500089819A8190931B0280931A020F900F9095
:10396000CF91DF910895DF93CF9300D000D0CDB7F2
:10397000DEB79C838B831A821982EBE2F0E082E04F
:103980008083EAE2F0E088E18083A0E4B0E0EB81AC
:10399000FC818081882F90E0880F991F282F206854
:1039A000EB81FC818181882F90E082959295907FB8
:1039B0009827807F9827282BEB81FC818281882F94
:1039C00090E0880F991F880F991F880F991F822BED
:1039D0008C93EB81FC8183819481A581B681880FD2
:1039E000991FAA1FBB1F880F991FAA1FBB1F880FF3
:1039F000991FAA1FBB1F9C01AD0180E092E1AAE7BD
:103A0000B0E0BC01CD010E94AE1DDA01C9010197F1
:103A10009A838983E0E4F0E089819A81892F99274C
:103A20008083E9E2F0E0898180830F900F900F900E
:103A30000F90CF91DF910895DF93CF930F92CDB781
:103A4000DEB78983EBE2F0E08081882F90E080721E
:103A500090700097B9F3ECE2F0E0898180830F90D9
:103A6000CF91DF910895DF93CF93CDB7DEB7EBE22F
:103A7000F0E080818823DCF7ECE2F0E08081CF91F8
:103A8000DF910895DF93CF9300D00F92CDB7DEB7CB
:103A90009B838A8319820EC08981282F30E08A8116
:103AA0009B81FC01E20FF31F80810E941C1D898114
:103AB0008F5F89838981282F30E08A819B81FC0177
:103AC000E20FF31F8081882339F70F900F900F903A
:103AD000CF91DF9108950F931F93DF93CF9300D081
:103AE0000F92CDB7DEB79B838A8319828981282FF5
:103AF00030E08A819B818C01020F131F0E94331DCD
:103B0000F80180830FC089818F5F89838981282F85
:103B100030E08A819B818C01020F131F0E94331DAC
:103B2000F80180838981282F30E08A819B81FC0104
:103B3000E20FF31F8081833231F78981282F30E033
:103B40008A819B81FC01E20FF31F10820F900F907E
:103B50000F90CF91DF911F910F910895A1E21A2E3E
:103B6000AA1BBB1BFD010DC0AA1FBB1FEE1FFF1F21
:103B7000A217B307E407F50720F0A21BB30BE40B71
:103B8000F50B661F771F881F991F1A9469F76095B8
:103B90007095809590959B01AC01BD01CF01089572
:103BA0002F923F924F925F926F927F928F929F924D
:103BB000AF92BF92CF92DF92EF92FF920F931F933B
:103BC000CF93DF93CDB7DEB7CA1BDB0B0FB6F894EC
:103BD000DEBF0FBECDBF09942A88398848885F842C
:103BE0006E847D848C849B84AA84B984C884DF809D
:103BF000EE80FD800C811B81AA81B981CE0FD11D81
:103C00000FB6F894DEBF0FBECDBFED010895FB01E6
:103C10009F01E8944230C4F04532B4F44A3029F4AC
:103C200097FB1EF4909581959F4F642F77270E94F4
:103C3000381E805D8A330CF0895D8193CB0100973B
:103C4000A1F716F45DE251931082C9010C94281E6D
:103C5000DC01FC01672F71917723E1F7329704C0F3
:103C60007C916D9370836291AE17BF07C8F308957E
:103C7000AA1BBB1B51E107C0AA1FBB1FA617B70792
:103C800010F0A61BB70B881F991F5A95A9F78095AE
:0C3C90009095BC01CD010895F894FFCF81
:103C9C00506C7A20456E74657220506173733A00D3
:103CAC00506C7A2052652D456E746572207468656F
:103CBC000073616D6520706173733A20002B203A9C
:103CCC00204F70656E20446F6F72002D203A204398
:103CDC0068616E6765205061737300446F6F72206A
:103CEC006973204F70656E696E6700446F6F722048
:103CFC006973204F70656E00446F6F72206973207A
:103D0C00436C6F73696E670057524F4E472050419A
:103D1C005353574F52440053595354454D204C4F15
:103D2C00434B45442000000000000000000000014F
:103D3C00020203030303040404040404040405053D
:103D4C000505050505050505050505050505060615
:103D5C0006060606060606060606060606060606F7
:103D6C0006060606060606060606060606060707E5
:103D7C0007070707070707070707070707070707C7
:103D8C0007070707070707070707070707070707B7
:103D9C0007070707070707070707070707070707A7
:103DAC000707070707070707070707070707080895
:103DBC000808080808080808080808080808080877
:103DCC000808080808080808080808080808080867
:103DDC000808080808080808080808080808080857
:103DEC000808080808080808080808080808080847
:103DFC000808080808080808080808080808080837
:103E0C000808080808080808080808080808080826
:103E1C000808080808080808080808080808080816
:103E2C000808080808080808080808080808030013
:103E3C0000802500000000000003000000000003CB
:023E4C00000074
:00000001FF
